:0400000002006B325D
:01000B0032C2
:0100130032BA
:01001B0032B2
:0100230032AA
:01002B0032A2
:01003300329A
:01003B003292
:01004300328A
:01004B003282
:01005300327A
:01005B003272
:0300630002019700
:0300C400020066D1
:030066000200C7CE
:2000C70075900675E61075A88075ABFF12011890802FE4F0A3F0A3F0908032F07582E21266
:2000E70007F390802FE4F0A3F0A3F0908032F07582E11207F375ABFF75ACFF75AD087EE8E1
:110107007F03000000001EBEFF011FEE4F70F380E466
:0616780000780074AA00D6
:20011800C20175A04090C7D6E04408F07E507FC3000000001EBEFF011FEE4F70F390C7D68E
:20013800E054F7F01201443001FDD32290C7AE7411F090C7ACE4F090C7AD7402F075B8101A
:2001580090C7A9741FF090C7AAF090C7DE7402F090C7DFF090C7E0E4F090C7E1F090C78147
:200178007420F090C78223F090C7887410F090C78923F090C78A23F090C7C774FFF022C05A
:2001980021C0E0C0F0C082C083C007C006C005C004C003C002C001C000C0D075D00890C701
:2001B800A8E0FF600ABF10028016BF244D802275D0001203DC75D00890C7AB7401F0803A59
:2001D80075D00012014475D00890C7AB7410F0802990C640E0FF9080417441F074C6A3F0C7
:2001F800E4A3F08F8275D00012099F75D00890C7AA7402F090C7C774FFF0D0D0D000D001EA
:20021800D002D003D004D005D006D007D083D082D0F0D0E0D02132AFF0AE83E58290800943
:20023800F0EEA3F0EFA3F0908009E0FDA3E0FEA3E0FF8D828E838FF01215F1AE82AF839011
:20025800809DE4F090809E7440F0E4A3F090C70275F000C007C00612153AD006D0078E04E1
:200278008F05EC2CFC0C0C90C700ECF090C7017403F0908009E0FBA3E0FCA3E0FD79007ACE
:2002980000C3E99EEA64808FF063F08095F05037C006C0078900E82824022400F510E43443
:2002B800C7F511E92BF8EA3CFE8D0788828E838FF0121609F8851082851183F009B90001EF
:2002D8000AD007D00680BA90C700E090C7B5F0229080B3E0FEA3E0FF74062EF582E43FF566
:2002F80083E0FCA3E0FD90800CECF08E828F83A3A3E0A3E0FE7F00BE0105BF00028014BEF0
:200318000205BF0002804DBE0306BF00030203B60203DA901629E493FFC39C500590800CF8
:20033800EFF090800CE0FFFD7E009080A07429F07416A3F07480A3F09080A3EDF0EEA3F05E
:2003580090C70075F000C007121562D00790C7B5EFF0D32290163DE493FEA3E493FF7D00D4
:20037800C3EE9CEF9D500590800CEEF090800CE0FFFD7E009080A0743BF07416A3F0748067
:20039800A3F09080A3EDF0EEA3F090C70075F000C007121562D00790C7B5EFF0D32290C787
:2003B800EAE075F002A424B5F582748035F0F583E0FEA3E0FF7D808E828F838DF012022F30
:2003D800D322C322C2029080B3E0FEA3E0FF8E828F83A3E0FD6052BD0502801EBD06028049
:2003F8000DBD08028030BD0902801302047C1202E8400302047CD202806AD20280668E823B
:200418008F83A3A3E0FCA3E0FD4C7004C2018002D201D202804EA201E433FD90C700F09008
:20043800C7B57401F0D202803B8E828F83E0FEBE822190C7ECE0FF530780BF800B90C7B680
:20045800E0FF90C700F0801490C7C6E0FF90C700F0800990C700E4F090C701F090C7B5740B
:1504780002F0D20230020790C7B47402F02290C7B47401F0224B
:06167E0000780074E8C7CB
:2016290012010002FFFFFF40151902010100010200010902200001010080640904000002F9
:20164900FFFFFF000705810240000007050102400000040900524653746F726D0052657382
:0F1669006561726368204669726D776172650012
:061684005B165E166616FF
:20048D00AFF0AE83E582908017F0EEA3F0EFA3F0908017E0FDA3E0FEA3E0FF908016E0FCF5
:2004AD007A007B008C007900C3EA98EB648089F063F08095F05033EC148A00C3982410F5BF
:2004CD0012E43480F513C004EA2DF8EB3EF98F04888289838CF0121609F8851282851383E6
:2004ED00F00ABA00010BD00480BAEC24FA50047F0580028C0790800EEFF0E4A3F090800D99
:20050D0004F09080157420F0C2909080397401F07582021208E090800EE0FEA3E0FF4E7002
:20052D00119080247402F09080BF75F0001207108043BE0132BF002F908010E090801AF0EA
:20054D00908010E0FD530580BD80047DAA80027D5590801BEDF09080247402F090801A75BC
:20056D00F000120710800E908024EEF090801075F000120710908028E4F0908029F07582DB
:20058D0000120787908015E0FF90802B7408F090802CEFF07582031207B4D29090C7B7E4CD
:2005AD00F022AFF0AE83E58290801FF0EEA3F0EFA3F090801FE0FDA3E0FEA3E0FF90801C88
:2005CD00E0FC7A007B008C007900C3EA98EB648089F063F08095F05033EC148A00C39824C7
:2005ED0010F514E43480F515C004EA2DF8EB3EF98F04888289838CF0121609F88514828550
:20060D001583F00ABA00010BD00480BAEC24FA50047F0580028C0790800EEFF0E4A3F0906C
:20062D00800D7402F090801EE0908015F0C2909080397401F07582021208E090800EE0FEA8
:20064D00A3E0FF4E70119080247402F09080BF75F0001207108043BE0132BF002F90801083
:20066D00E0908022F0908010E0FD530580BD80047DAA80027D55908023EDF0908024740220
:20068D00F090802275F000120710800E908024EEF090801075F000120710908028E4F090B3
:2006AD008029F075820012078790801DE0FF6005BF01328018908015E0FF90802B7426F039
:2006CD0090802CEFF07582031207B4802E908015E0FF90802B7406F090802CEFF0758203BF
:2006ED001207B48016908015E0FF90802B740EF090802CEFF07582031207B4D29090C7B787
:20070D00E4F022AFF0AE83E582908025F0EEA3F0EFA3F09080397401F07582021208E09046
:20072D008024E0FF24FE908039F0758203C0071208E0D007908025E0FCA3E0FDA3E0FE909A
:20074D00802FECF0EDA3F0EEA3F0908032EFF0758230C0071207F3D007908025E0FCA3E07A
:20076D00FDA3E0FE90802FECF0EDA3F0EEA3F0908032EFF075822A0207F3E58290802AF003
:20078D00E0908039F075821D1208E0908028E0908039F075821C1208E0908029E090803965
:2007AD00F07582010208E0E58290802DF0E0908039F07582001208E090802BE0908039F068
:2007CD007582061208E090802CE0908039F07582110208E0E58290802EF0E0F5E5C2C030CD
:2007ED00C0FD85E58222E582908033F0C291908033E0F5821207E190802FE0FDA3E0FEA360
:20080D00E0FF908032E0FC7A007B008C007900C3EA98EB648089F063F08095F05039C004A2
:20082D00EA2DF8EB3EF98F04888289838CF0121609F582C007C006C005C004C003C0021200
:20084D0007E1D002D003D004D005D006D0070ABA00010BD00480B4D29122E582908038F0AC
:20086D00C291908038E0F5821207E1908034E0FDA3E0FEA3E0FF908037E0FC7A007B008CB7
:20088D00007900C3EA98EB648089F063F08095F0503EC004EA2DF516EB3EF5178F187582A6
:2008AD00FFC007C006C005C003C0021207E1AC82D002D003D005D006D007851682851783CA
:2008CD008518F0EC1215D60ABA00010BD00480AFD29122E58290803AF0E0FF430720908043
:2008ED002F7439F07480A3F0E4A3F090803204F08F820207F3E58290803BF0E0FF90803419
:20090D00743CF07480A3F0E4A3F090803704F08F8212086790803CE0F58222AF83E5829071
:20092D00803FF0EFA3F090803DE0FE7F0090803FE0FCA3E0FD90803FEF6CF0EE6DA3F0900C
:20094D00803EE0FF8F061FEE603C90803FE0FDA3E0FE7B0074805EFCBB001ABC80178D0381
:20096D00EECB25E0CB33FC90803F74216BF074106CA3F080CFEECD25E0CD33FE90803FEDA7
:20098D00F0EEA3F080BE90803FE0FEA3E08E82F58322E582908044F0E0FFBFFF0E9080BB20
:2009AD00E0F8A3E0F5838882020069BFFE699080457445F0908046746EF09080477474F067
:2009CD009080487465F09080497472F090804A7420F090804B7449F090804C7443F09080C1
:2009ED004D7450F07D007E00C3ED9409EE648094805016EDF5F52445F582EE3480F583E0A4
:200A0D00F5F20DBD00E20E80DF9080BDE0F8A3E0F5838882020069BF0B10AE9474EF5EF5E2
:200A2D009443801090C7B7E4F022BF0968C290908041E0FCA3E0FDA3E0FE8C828D838EF0F2
:200A4D00121609908039F0758205C006C005C0041208E0D004D005D00690C7B77401F08C5C
:200A6D00828D838EF012160990C680F090802FE4F0A3F0A3F0908032F07582E21207F39082
:200A8D00802FE4F0A3F0A3F0908032F07582E11207F3D29022BF0A1F9080347480F074C6BC
:200AAD00A3F0E4A3F090803704F075820512086790C7B77401F022BF062A908041E0FCA313
:200ACD00E0FDA3E0FE74012CF9E43DFA8E038C828D838EF0121609908016F089828A838BDF
:200AED00F002048DBF0D61908041E0FCA3E0FDA3E0FE74032CF51AE43DF51B8E1C8C828DE3
:200B0D00838EF0121609F51974012CF8E43DFA8E0388828A838BF0121609F874022CFCE406
:200B2D003DFD8C828D838EF0121609FC90801CE519F090801DE8F090801EECF0851A8285D6
:200B4D001B83851CF00205AFBF071790802B7490F090802CE4F07582021207B490C7B7E4CF
:200B6D00F022BF12028003021004908034744EF07480A3F0E4A3F090803704F0758217129B
:200B8D00086790804EE0FE30E003020FF790800DE0FE707B908034744EF07480A3F0E4A398
:200BAD00F090803704F075826012086790804EE0FD24DF403B9080347481F074C6A3F0E492
:200BCD00A3F0908037EDF075826112086790C680E4F090804EE0FD0D90C7B7EDF090802F5C
:200BED00E4F0A3F0A3F0908032F07582E20207F390C7B77401F090C68074FFF090802FE418
:200C0D00F0A3F0A3F0908032F07582E20207F3BE01028003020F447C007D0090800EE0FA20
:200C2D00A3E0FBC3EC9AED64808BF063F08095F0502B8A018C00E9C398142453F51AE434B4
:200C4D0080F51BEC2410F582ED3480F583E0F9851A82851B83F00CBC00C10D80BEEA245305
:200C6D00FAEB3480FB7D00908015E0FC908034EAF0EBA3F0EDA3F0908037ECF075826112AC
:200C8D0008677C007D00BC016DBD006A7A1F7B00C3E49A74808BF063F08095F05033C0042B
:200CAD00C005EA2453F8EB3480F98A05ED142453F582E43480F583E0035480FD8882898319
:200CCD00E0C313420588828983EDF0D005D004801CC004C005EA2453F8EB3480F9888289C5
:200CED0083E0C31388828983F0D005D0041ABAFF011BEB30E79AC004C005908058E003039D
:200D0D00543FFB908015E07A0024F7F9EA34FFFA90800EE0F8A3E0FDE829F9ED3AFA8B1A48
:200D2D00751B00C3E9951AEA6480851BF063F08095F0D005D0045003020F2EC004C00574CD
:200D4D00062B2453F582E43480F583E0F929FA790074072B2453F582E43480F583E0F8E482
:200D6D00C825E0C833FDE84201ED42028A1D891E908051E51DF0E51EA3F074082B2453F5FB
:200D8D0082E43480F583E0D005D00430E70C908051E51DF07401451EA3F090804F74FFF088
:200DAD00A3F07406251AF9E4351BFAE4F51DF51EC3E51D99E51E64808AF063F08095F05043
:200DCD005AC004C00590804FE0F8A3E0FDE51D2453F582E51E3480F583E0FC90803DF090A4
:200DED00803E7408F088828D83C005C004C003C002C001120928E5828583F0D001D002D0BE
:200E0D0003D004D00590804FF0E5F0A3F0051DE4B51D02051ED005D0048095C004C005908E
:200E2D00804FE0F9A3E0FA74062B2453F582E43480F583E0F890803D748058F090803E74BA
:200E4D0001F089828A83C005C004C003120928A982AA83D003D004D005E98A01FA9080514A
:200E6D00E0F8A3E0FDE9B50006EAB505028007D005D004020F2ED005D0049080A07453F044
:200E8D007480A3F0E4A3F09080A37405F0E4A3F090C68075F000C003121562D003740325BE
:200EAD001AF9E4351BFAE4F51DF51EC3E51D99E51E64808AF063F08095F0504BC001C002A6
:200ECD00A81D7405282480F51AE434C6F51B7406282453F582E43480F583E025E0FA740704
:200EED00282453F582E43480F583E0235401F94202851A82851B83EAF0051DE4B51D02052D
:200F0D001ED002D00180A474052B90C7B7F090802FE4F0A3F0A3F0908032F07582E20207F0
:200F2D00F30CBC00010DC3EC9402ED648094805003020C93020FF7BE02028003020FF77DEB
:200F4D00007E0090800EE0FBA3E0FCC3ED9BEE64808CF063F08095F050278B028D01EAC35E
:200F6D0099142478F9E43480FAED2410F582EE3480F583E0F889828A83F00DBD00C50E80E1
:200F8D00C2EB2478FBEC3480FC7E00908015E0FD908034EBF0ECA3F0EEA3F0908037EDF0A1
:200FAD00758261120867908015E0FE7D0090800EE0FBA3E0FCEE2BFEED3CFD9080A074787A
:200FCD00F07480A3F0E4A3F09080A3EEF0EDA3F090C68075F00012156290800EE0FDA3E0C3
:200FED00908015E02D90C7B7F02290C7B77401F090C68074FFF022BF050280030210C09019
:20100D00800DE4F0908041E0FCA3E0FDA3E0FE8C828D838EF0121609FB24FA500B8C828D58
:20102D00838EF074051215D68C828D838EF0121609FBBB0200500B8C828D838EF074021228
:20104D0015D6C29074012CF9E43DFA8E038C828D838EF0121609908024F089828A838BF07C
:20106D001207109080287401F0908029E4F075820612078790802B7408F090802CE4F075C7
:20108D00820F1207B4D29090802FE4F0A3F0A3F0908032F07582E21207F390802FE4F0A37D
:2010AD00F0A3F0908032F07582E11207F390C7B7E4F022BF080280030211EF908041E0FC0B
:2010CD00A3E0FDA3E0FE8C828D838EF0121609FB24DF500B8C828D838EF074201215D68C23
:2010ED00828D838EF0121609FBBB0100500B8C828D838EF074011215D6C29090802FE4F01D
:20110D00A3F0A3F0908032F07582E1C006C005C0041207F3D004D005D00690802FE4F0A302
:20112D00F0A3F0908032F07582E2C006C005C0041207F39080397470F07582071208E09014
:20114D0080397401F07582011208E09080397406F075821D1208E0D004D005D00674012C91
:20116D00F9E43DFA8E038C828D838EF0121609FC90802FE9F0EAA3F0EBA3F0908032ECF0C3
:20118D007582A81207F3D29090C680E4F07D007E00C3ED94F4EE94015036758207C006C0CB
:2011AD0005120902E582D005D0065440FCBC400890C6807401F080187BE87C0300000000A5
:2011CD001BBBFF011CEB4C70F30DBD00C40E80C1908039E4F07582011208E090C7B7740107
:2011ED00F022BF0402800302137B908041E0FCA3E0FDA3E0FE8C828D838EF0121609FB24DE
:20120D00DF500B8C828D838EF074201215D68C828D838EF0121609FBBB0100500B8C828DE0
:20122D00838EF074011215D6C29074012CF9E43DFA8E0389828A838BF0121609F989F0055B
:20124D00F07401800225E0D5F0FBF974022CF8E43DFA8E0388828A838BF01216099080398A
:20126D0049F0758204C006C005C0041208E0D004D005D00690802FE4F0A3F0A3F0908032EA
:20128D00F07582E1C006C005C0041207F3D004D005D00690802FE4F0A3F0A3F0908032F034
:2012AD007582E2C006C005C0041207F39080397470F07582071208E0758200120902AB8297
:2012CD0090803974FE5BF07582001208E09080397401F07582011208E0D004D005D0067477
:2012ED00032CF9E43DFA8E038C828D838EF0121609FC90802FE9F0EAA3F0EBA3F0908032EF
:20130D00ECF07582A01207F3D2907D0A7E00000000001DBDFF011EED4E70F3C290C291752A
:20132D00E5FFC2C030C0FDD291741055E5FEBE100790C680E4F0800E742055E5FEBE20DD9A
:20134D0090C6807401F0908039E4F07582011208E0758200120902E5829080394401F075C8
:20136D0082001208E0D29090C7B77401F022BF0C02800122908041E0FDA3E0FEA3E0FF8DBF
:20138D00828E838FF0121609FC74012DF51AE43EF51B8F1C851A82851B83851CF01216096D
:2013AD002C2402F8EC24DF500B8D828E838FF074201215D68D828E838FF0121609FCBC01D3
:2013CD0000500B8D828E838FF074011215D6851A82851B83851CF0121609FC24FA500E8591
:2013ED001A82851B83851CF074051215D6851A82851B83851CF0121609FCBC0100500E8578
:20140D001A82851B83851CF074011215D6C29090802FE4F0A3F0A3F0908032F07582E1C0A8
:20142D0007C006C005C0001207F3D000D005D006D00790802FE4F0A3F0A3F0908032F0750F
:20144D0082E2C007C006C005C0001207F39080397470F07582071208E0758200120902AC28
:20146D008290803974FE5CF07582001208E0D000D005D006D007E82DF8E43EFB8F04851A37
:20148D0082851B83851CF0121609908024F088828B838CF0C007C006C005120710D005D000
:2014AD0006D00774022DFAE43EFB8F048D828E838FF0121609FD90802FEAF0EBA3F0ECA302
:2014CD00F0908032EDF07582A01207F3D2907E0A7F00000000001EBEFF011FEE4F70F3C287
:2014ED0090C29175E5FFC2C030C0FDD291742055E5FFBF20EC90C6807401F07582001209EC
:20150D0002E5829080394401F07582001208E090800EE0FEA3E0908024EEF090801075F0D0
:0D152D0000120710D29090C7B77401F02291
:06168A0000780074AA00C4
:06009A00E478FFF6D8FD3A
:20153A00AC82AD8390809EE0FEA3E0FFBE000360121F0F90809DE08C828D831215D6A3DE9B
:08155A00FADFF88C828D832278
:20156200AFF0AE83E5829080A5F0EEA3F0EFA3F09080A5E0F522A3E0F523A3E0F524AA22DB
:20158200AB23AC249080A0E0F8A3E0F9A3E0FF9080A3E0F525A3E0F526AD25AE2615257486
:2015A200FFB525021526ED4E6020888289838FF0121609FEA3A882A9838A828B838CF0EE17
:1415C2001215D6A3AA82AB8380CF8522828523838524F022BD
:200078007918E94400601B7A0190167878A975A080E493F2A308B8000205A0D9F4DAF2755F
:02009800A0FFC7
:1B15D60020F71130F6138883A88220F509F6A8837583002280FEF280F5F02214
:2000A0007800E84400600A790075A080E4F309D8FC78A9E84400600C7901908000E4F0A3B6
:0400C000D8FCD9FA95
:02006900E4733E
:1815F100AA82AB831216096003A380F8C3E5829AF582E5839BF5832201
:0D006B00758126121625E5826003020066ED
:1C16090020F71430F6148883A88220F507E6A88375830022E280F7E49322E022F0
:0416250075820022A8
:00000001FF
