:0400000002006B325D
:01000B0032C2
:0100130032BA
:01001B0032B2
:0100230032AA
:01002B0032A2
:01003300329A
:01003B003292
:01004300328A
:01004B003282
:01005300327A
:01005B003272
:030063000201A1F6
:0300C400020066D1
:030066000200C7CE
:2000C70075900675E61075A8801200FD50FB908024E4F0A3F0A3F0908027F07582E2120666
:1600E70086908024E4F0A3F0A3F0908027F07582E112068680FE34
:041059000078AA0071
:2000FD00C20175A04090C7D6E04408F07E507FC3000000001EBEFF011FEE4F70F390C7D6AA
:20011D00E054F7F012014E7E007F002001217CE87D03000000001CBCFF011DEC4D70F30E84
:20013D00BE00010FC374E89E74039F50DEC322D32290C7AE7411F090C7ACE4F090C7AD7430
:20015D0002F075B81090C7A9741FF090C7AAF090C7DE7402F090C7DFF090C7E0E4F090C7BC
:20017D00E1F090C7817420F090C78223F090C7887410F090C78923F090C78A23F090C7C7F1
:20019D0074FFF022C021C0E0C0F0C082C083C007C006C005C004C003C002C001C000C0D05B
:2001BD0075D00890C7A8E0FF600ABF10028016BF244D802275D0001203DA75D00890C7ABD1
:2001DD007401F0803A75D00012014E75D00890C7AB7410F0802990C640E0FF908036744161
:2001FD00F074C6A3F0E4A3F08F8275D00012083275D00890C7AA7402F090C7C774FFF0D007
:20021D00D0D000D001D002D003D004D005D006D007D083D082D0F0D0E0D02132AFF0AE834D
:20023D00E582908008F0EEA3F0EFA3F0908008E0FDA3E0FEA3E0FF8D828E838FF0120FD2A5
:20025D00AE82AF83908064E4F09080657440F0E4A3F090C70275F000C007C006120F1BD0F0
:20027D0006D0078E048F05EC2CFC0C0C90C700ECF090C7017403F0908008E0FBA3E0FCA32B
:20029D00E0FD79007A00C3E99EEA64808FF063F08095F05037C006C0078900E8282402248B
:2002BD0000F510E434C7F511E92BF8EA3CFE8D0788828E838FF0120FEAF8851082851183A6
:2002DD00F009B900010AD007D00680BA90C700E090C7B5F022908076E0FEA3E0FF8E828F83
:2002FD0083A3A3E0A3E0FC7D00BC0105BD00028014BC0205BD00028055BC0306BD00030249
:20031D0003B40203D874062EF582E43FF583E0FCA3E0FD908067740AF07410A3F07480A383
:20033D00F090806AECF0EDA3F090C70075F000120F43908076E0FCA3E0FD74062CF582E4D7
:20035D003DF583E0FCA3E090C7B5ECF0D32274062EF582E43FF583E0FEA3E0FF908067748A
:20037D001CF07410A3F07480A3F090806AEEF0EFA3F090C70075F000120F43908076E0FE58
:20039D00A3E0FF74062EF582E43FF583E0FEA3E090C7B5EEF0D32290C7EAE075F002A42474
:2003BD0078F582748035F0F583E0FEA3E0FF7D808E828F838DF0120239D322C322C2029029
:2003DD008076E0FEA3E0FF8E828F83A3E0FD6052BD0502801EBD0602800DBD08028030BD6E
:2003FD000902801302047A1202F2400302047AD202806AD20280668E828F83A3A3E0FCA39A
:20041D00E0FD4C7004C2018002D201D202804EA201E433FD90C700F090C7B57401F0D20225
:20043D00803B8E828F83E0FEBE822190C7ECE0FF530780BF800B90C7B6E0FF90C700F0808A
:20045D001490C7C6E0FF90C700F0800990C700E4F090C701F090C7B57402F0D202300207AD
:0E047D0090C7B47402F02290C7B47401F0224C
:04105D000078E8C768
:20100A0012010200FFFFFF401519020101000102000109022000010100806409040000021E
:20102A00FF00FF000705810240000007050102400000040900524653746F726D00526573A6
:0F104A006561726368204669726D776172650037
:061061003C103F10471097
:20048B00AFF0AE83E582908014F0EEA3F0EFA3F0908014E0FDA3E0FEA3E0FF908013E0FC00
:2004AB007A007B008C007900C3EA98EB648089F063F08095F05033EC148A00C398240EF5C3
:2004CB0012E43480F513C004EA2DF8EB3EF98F04888289838CF0120FEAF88512828513830E
:2004EB00F00ABA00010BD00480BAEC24FA50047F0580028C0790800CEFF0E4A3F090800B9F
:20050B0004F0C29090802E7401F075820212077390800CE0FEA3E0FF4E7011908019740278
:20052B00F090808075F0001205A38043BE0132BF002F90800EE0908017F090800EE0FD530C
:20054B000580BD80047DAA80027D55908018EDF09080197402F090801775F0001205A380F5
:20056B000E908019EEF090800E75F0001205A390801DE4F090801EF075820012061A9080C6
:20058B00207408F09080217420F0758203120647D29090C7B7E4F022AFF0AE83E582908009
:2005AB001AF0EEA3F0EFA3F090802E7401F0758202120773908019E0FF24FE90802EF0752E
:2005CB008203C007120773D00790801AE0FCA3E0FDA3E0FE908024ECF0EDA3F0EEA3F090B9
:2005EB008027EFF0758230C007120686D00790801AE0FCA3E0FDA3E0FE908024ECF0EDA360
:20060B00F0EEA3F0908027EFF075822A020686E58290801FF0E090802EF075821D12077365
:20062B0090801DE090802EF075821C12077390801EE090802EF0758201020773E5829080AE
:20064B0022F0E090802EF0758200120773908020E090802EF0758206120773908021E09084
:20066B00802EF0758211020773E582908023F0E0F5E5C2C030C0FD85E58222E582908028ED
:20068B00F0C291908028E0F582120674908024E0FDA3E0FEA3E0FF908027E0FC7A007B00D5
:2006AB008C007900C3EA98EB648089F063F08095F05039C004EA2DF8EB3EF98F04888289A1
:2006CB00838CF0120FEAF582C007C006C005C004C003C002120674D002D003D004D005D049
:2006EB0006D0070ABA00010BD00480B4D29122E58290802DF0C29190802DE0F582120674AE
:20070B00908029E0FDA3E0FEA3E0FF90802CE0FC7A007B008C007900C3EA98EB648089F016
:20072B0063F08095F0503EC004EA2DF514EB3EF5158F167582FFC007C006C005C003C0023F
:20074B00120674AC82D002D003D005D006D0078514828515838516F0EC120FB70ABA000161
:20076B000BD00480AFD29122E58290802FF0E0FF430720908024742EF07480A3F0E4A3F038
:20078B0090802704F08F82020686E582908030F0E0FF9080297431F07480A3F0E4A3F090B2
:2007AB00802C04F08F821206FA908031E0F58222AF83E582908034F0EFA3F0908032E0FE42
:2007CB007F00908034E0FCA3E0FD908034EF6CF0EE6DA3F0908033E0FF8F061FEE603C9082
:2007EB008034E0FDA3E0FE7B0074805EFCBB001ABC80178D03EECB25E0CB33FC90803474EB
:20080B00216BF074106CA3F080CFEECD25E0CD33FE908034EDF0EEA3F080BE908034E0FEBF
:20082B00A3E08E82F58322E582908039F0E0FFBFFF0E90807EE0F8A3E0F58388820200695F
:20084B00BF0B10AE9474EF5EF59443801090C7B7E4F022BF0968C290908036E0FCA3E0FD2C
:20086B00A3E0FE8C828D838EF0120FEA90802EF0758205C006C005C004120773D004D00597
:20088B00D00690C7B77401F08C828D838EF0120FEA90C680F0908024E4F0A3F0A3F0908059
:2008AB0027F07582E2120686908024E4F0A3F0A3F0908027F07582E1120686D29022BF0A87
:2008CB001F9080297480F074C6A3F0E4A3F090802C04F07582051206FA90C7B77401F022BA
:2008EB00BF062A908036E0FCA3E0FDA3E0FE74012CF9E43DFA8E038C828D838EF0120FEAEE
:20090B00908013F089828A838BF002048BBF07179080207490F0908021E4F075820212067E
:20092B004790C7B7E4F022BF12028003020CD5908029743AF07480A3F0E4A3F090802C0413
:20094B00F07582171206FA90803AE0FE30E003020CC890800BE0FE707B908029743AF0743C
:20096B0080A3F0E4A3F090802C04F07582601206FA90803AE0FE24DF403B9080297481F085
:20098B0074C6A3F0E4A3F090802CEEF07582611206FA90C680E4F090803AE0FE0E90C7B796
:2009AB00EEF0908024E4F0A3F0A3F0908027F07582E202068690C7B77401F090C68074FFD6
:2009CB00F0908024E4F0A3F0A3F0908027F07582E20206867D007E0090800CE0FBA3E0FCEF
:2009EB00C3ED9BEE64808CF063F08095F050278B028D01EAC39914243FF9E43480FAED2410
:200A0B000EF582EE3480F583E0F889828A83F00DBD00C50E80C2EB243FFBEC3480FC908078
:200A2B0029EBF0ECA3F0E4A3F090802C7420F07582611206FAE4F519F51A7401B51906E459
:200A4B00B51A028002805C7B1F7C00C3E49B74808CF063F08095F0502CEB243FF9EC3480D9
:200A6B00FA8B00E814243FF582E43480F583E0035480F889828A83E0C313FE420089828AAE
:200A8B0083E8F08015EB243FF9EC3480FA89828A83E0C313F889828A83F01BBBFF011CECCE
:200AAB0030E7A8908044E00303543FFC90800CE0FAA3E0FB74172AFAE43BFB8C007900C39E
:200ACB00EA98EB648089F063F08095F05003020CB0C000C00174062C243FF582E43480F54A
:200AEB0083E025E0FA7B0074072C243FF582E43480F583E0F8E4C825E0C833F9E84203E9EA
:200B0B0042028A178B1890803DE517F0E518A3F074082C243FF582E43480F583E0FBD0013B
:200B2B00D00030E70C90803DE517F074014518A3F090803B74FFF0A3F0740628FAE439FB24
:200B4B00E4F517F518C3E5179AE51864808BF063F08095F05059C000C00190803BE0F8A390
:200B6B00E0F9E517243FF582E5183480F583E0908032F09080337408F088828983C004C037
:200B8B0003C002C001C0001207BBE5828583F0D000D001D002D003D00490803BF0E5F0A304
:200BAB00F00517E4B517020518D001D000809690803BE0FDA3E0FE74062C243FF582E43457
:200BCB0080F583E0FB90803274805BF09080337401F08D828E83C004C001C0001207BBAD28
:200BEB0082AE83D000D001D004ED8E05FE90803DE0FAA3E0FBEDB50206EEB50302800302C8
:200C0B000CB0908067743FF07480A3F0E4A3F090806A7405F0E4A3F090C68075F000C0049C
:200C2B00C001C000120F43D000D001D004740328FDE439FE7A007B00C3EA9DEB64808EF00C
:200C4B0063F08095F05044C005C0068A017405292480F8E434C6FE740629243FF582E434D8
:200C6B0080F583E025E0FD740729243FF582E43480F583E0235401F9420588828E83EDF071
:200C8B000ABA00010BD006D00580AD74052C90C7B7F0908024E4F0A3F0A3F0908027F07534
:200CAB0082E20206860519E4B51902051AC3E5199402E51A648094805003020A4590C7B746
:200CCB007401F090C68074FFF022BF05028003020D9190800BE4F0908036E0FCA3E0FDA32C
:200CEB00E0FE8C828D838EF0120FEAFB24FA500B8C828D838EF07405120FB78C828D838E57
:200D0B00F0120FEAFBBB0200500B8C828D838EF07402120FB7C29074012CF9E43DFA8E0338
:200D2B008C828D838EF0120FEA908019F089828A838BF01205A390801D7401F090801EE4F7
:200D4B00F075820612061A9080207408F0908021E4F075820F120647D290908024E4F0A356
:200D6B00F0A3F0908027F07582E2120686908024E4F0A3F0A3F0908027F07582E11206867C
:200D8B0090C7B7E4F022BF0402800122908036E0FDA3E0FEA3E0FF8D828E838FF0120FEA0C
:200DAB00FC24DF500B8D828E838FF07420120FB78D828E838FF0120FEAFCBC0100500B8D78
:200DCB00828E838FF07401120FB7C29074012DFAE43EFB8F048A828B838CF0120FEAFA8AE6
:200DEB00F005F07401800225E0D5F0FBFA74022DF9E43EFB8F0489828B838CF0120FEA90D1
:200E0B00802E4AF0758204C007C006C005120773D005D006D007908024E4F0A3F0A3F090C6
:200E2B008027F07582E1C007C006C005120686D005D006D007908024E4F0A3F0A3F0908088
:200E4B0027F07582E2C007C006C00512068690802E7470F075820712077375820012079566
:200E6B00AC8290802E74FE5CF075820012077390802E7401F0758201120773D005D006D018
:200E8B000774032DFAE43EFB8F048D828E838FF0120FEAFD908024EAF0EBA3F0ECA3F090B0
:200EAB008027EDF07582A0120686D2907E0A7F00000000001EBEFF011FEE4F70F3C290C256
:200ECB009175E5FFC2C030C0FDD291741055E5FFBF100790C680E4F0800E742055E5FFBFF4
:200EEB0020DD90C6807401F090802EE4F0758201120773758200120795E58290802E44018A
:100F0B00F0758200120773D29090C7B77401F0226C
:041067000078AA0063
:06009A00E478FFF6D8FD3A
:200F1B00AC82AD83908065E0FEA3E0FFBE000360121F0F908064E08C828D83120FB7A3DE57
:080F3B00FADFF88C828D83229D
:200F4300AFF0AE83E58290806CF0EEA3F0EFA3F090806CE0F51BA3E0F51CA3E0F51DAA1B8E
:200F6300AB1CAC1D908067E0F8A3E0F9A3E0FF90806AE0F51EA3E0F51FAD1EAE1F151E744E
:200F8300FFB51E02151FED4E6020888289838FF0120FEAFEA3A882A9838A828B838CF0EE70
:140FA300120FB7A3AA82AB8380CF851B82851C83851DF0221C
:200078007912E94400601B7A01901059787075A080E493F2A308B8000205A0D9F4DAF275C3
:02009800A0FFC7
:1B0FB70020F71130F6138883A88220F509F6A8837583002280FEF280F5F02239
:2000A0007800E84400600A790075A080E4F309D8FC7870E84400600C7901908000E4F0A3EF
:0400C000D8FCD9FA95
:02006900E4733E
:180FD200AA82AB83120FEA6003A380F8C3E5829AF582E5839BF583224C
:0D006B00758121121006E582600302006617
:1C0FEA0020F71430F6148883A88220F507E6A88375830022E280F7E49322E02216
:0410060075820022CD
:00000001FF
